{
  "contractName": "MeritToken",
  "abi": [
    {
      "inputs": [],
      "name": "name",
      "outputs": [
        {
          "internalType": "string",
          "name": "",
          "type": "string"
        }
      ],
      "stateMutability": "view",
      "type": "function",
      "constant": true
    },
    {
      "inputs": [],
      "name": "symbol",
      "outputs": [
        {
          "internalType": "string",
          "name": "",
          "type": "string"
        }
      ],
      "stateMutability": "view",
      "type": "function",
      "constant": true
    },
    {
      "inputs": [
        {
          "internalType": "address",
          "name": "",
          "type": "address"
        }
      ],
      "name": "verifiedDegrees",
      "outputs": [
        {
          "internalType": "bool",
          "name": "",
          "type": "bool"
        }
      ],
      "stateMutability": "view",
      "type": "function",
      "constant": true
    },
    {
      "inputs": [
        {
          "internalType": "address",
          "name": "student",
          "type": "address"
        }
      ],
      "name": "verifyDegree",
      "outputs": [],
      "stateMutability": "nonpayable",
      "type": "function"
    },
    {
      "inputs": [
        {
          "internalType": "address",
          "name": "student",
          "type": "address"
        }
      ],
      "name": "isVerified",
      "outputs": [
        {
          "internalType": "bool",
          "name": "",
          "type": "bool"
        }
      ],
      "stateMutability": "view",
      "type": "function",
      "constant": true
    }
  ],
  "bytecode": "0x60806040526040518060400160405280601781526020017f49495420426f6d626179204d65726974205468726561640000000000000000008152506000908051906020019061004f9291906100ae565b506040518060400160405280600481526020017f49495442000000000000000000000000000000000000000000000000000000008152506001908051906020019061009b9291906100ae565b503480156100a857600080fd5b506101b2565b8280546100ba90610151565b90600052602060002090601f0160209004810192826100dc5760008555610123565b82601f106100f557805160ff1916838001178555610123565b82800160010185558215610123579182015b82811115610122578251825591602001919060010190610107565b5b5090506101309190610134565b5090565b5b8082111561014d576000816000905550600101610135565b5090565b6000600282049050600182168061016957607f821691505b6020821081141561017d5761017c610183565b5b50919050565b7f4e487b7100000000000000000000000000000000000000000000000000000000600052602260045260246000fd5b610510806101c16000396000f3fe608060405234801561001057600080fd5b50600436106100575760003560e01c806306fdde031461005c578063500f99451461007a57806395d89b41146100aa578063b9209e33146100c8578063eaf64abb146100f8575b600080fd5b610064610114565b60405161007191906103a2565b60405180910390f35b610094600480360381019061008f9190610316565b6101a2565b6040516100a19190610387565b60405180910390f35b6100b26101c2565b6040516100bf91906103a2565b60405180910390f35b6100e260048036038101906100dd9190610316565b610250565b6040516100ef9190610387565b60405180910390f35b610112600480360381019061010d9190610316565b6102a6565b005b6000805461012190610451565b80601f016020809104026020016040519081016040528092919081815260200182805461014d90610451565b801561019a5780601f1061016f5761010080835404028352916020019161019a565b820191906000526020600020905b81548152906001019060200180831161017d57829003601f168201915b505050505081565b60026020528060005260406000206000915054906101000a900460ff1681565b600180546101cf90610451565b80601f01602080910402602001604051908101604052809291908181526020018280546101fb90610451565b80156102485780601f1061021d57610100808354040283529160200191610248565b820191906000526020600020905b81548152906001019060200180831161022b57829003601f168201915b505050505081565b6000600260008373ffffffffffffffffffffffffffffffffffffffff1673ffffffffffffffffffffffffffffffffffffffff16815260200190815260200160002060009054906101000a900460ff169050919050565b6001600260008373ffffffffffffffffffffffffffffffffffffffff1673ffffffffffffffffffffffffffffffffffffffff16815260200190815260200160002060006101000a81548160ff02191690831515021790555050565b600081359050610310816104c3565b92915050565b60006020828403121561032857600080fd5b600061033684828501610301565b91505092915050565b610348816103f2565b82525050565b6000610359826103c4565b61036381856103cf565b935061037381856020860161041e565b61037c816104b2565b840191505092915050565b600060208201905061039c600083018461033f565b92915050565b600060208201905081810360008301526103bc818461034e565b905092915050565b600081519050919050565b600082825260208201905092915050565b60006103eb826103fe565b9050919050565b60008115159050919050565b600073ffffffffffffffffffffffffffffffffffffffff82169050919050565b60005b8381101561043c578082015181840152602081019050610421565b8381111561044b576000848401525b50505050565b6000600282049050600182168061046957607f821691505b6020821081141561047d5761047c610483565b5b50919050565b7f4e487b7100000000000000000000000000000000000000000000000000000000600052602260045260246000fd5b6000601f19601f8301169050919050565b6104cc816103e0565b81146104d757600080fd5b5056fea26469706673582212200ce4ec69ac99a3e330299af50f8ac1617fbd77aea58e14aa1cb6b9632cf262eb64736f6c63430008000033",
  "immutableReferences": {},
  "source": "// SPDX-License-Identifier: MIT\npragma solidity ^0.8.0;\n\ncontract MeritToken {\n    string public name = \"IIT Bombay Merit Thread\";\n    string public symbol = \"IITB\";\n\n    mapping(address => bool) public verifiedDegrees;\n\n    function verifyDegree(address student) public {\n        verifiedDegrees[student] = true;\n    }\n\n    function isVerified(address student) public view returns (bool) {\n        return verifiedDegrees[student];\n    }\n}",
  "sourcePath": "C:\\Users\\Acer\\iitb_auspicious_thread\\contracts\\MeritToken.sol",
  "compiler": {
    "name": "solc",
    "version": "0.8.0+commit.c7dfd78e.Emscripten.clang"
  },
  "schemaVersion": "3.4.16",
  "updatedAt": "2026-02-14T17:12:19.242Z",
  "networkType": "ethereum",
  "devdoc": {
    "kind": "dev",
    "methods": {},
    "version": 1
  },
  "userdoc": {
    "kind": "user",
    "methods": {},
    "version": 1
  }
}